:020000040800F2
:100000009824002005020008C7360008F102000805
:10001000C5360008AF210008193B000800000000A9
:10002000000000000000000000000000113800087F
:10003000B121000800000000730200081338000816
:100040001F0200081F0200081F0200081F0200080C
:100050001F0200081F0200081F0200081F020008FC
:100060001F0200081F0200081F0200081F020008EC
:100070001F0200081F0200081F0200081F020008DC
:100080001F0200081F0200081F0200081F020008CC
:100090001F0200081F0200081F0200081F020008BC
:1000A0001F0200081F0200081F0200081F020008AC
:1000B0001F0200081F0200081F0200081F0200089C
:1000C0001F0200081F0200081F0200081F0200088C
:1000D0001F020008013B00080D3B00081F0200083A
:1000E0001F0200081F0200081F02000800F002F8AB
:1000F00000F078F80AA090E8000C82448344AAF14A
:100100000107DA4501D100F06DF8AFF2090EBAE847
:100110000F0013F0010F18BFFB1A43F0010318473B
:10012000346F0000546F00000A444FF0000C10F8C8
:10013000013B13F0070408BF10F8014B1D1108BF65
:1001400010F8015B641E05D010F8016B641E01F805
:10015000016BF9D113F0080F1EBF10F8014BAD1C55
:100160000C1B09D16D1E58BF01F801CBFAD505E073
:1001700014F8016B01F8016B6D1EF9D59142D6D3CD
:10018000704700000023002400250026103A28BFF5
:1001900078C1FBD8520728BF30C148BF0B607047F9
:1001A000662906F00486642900F02C81752900F088
:1001B0002981782900F06281002070471FB59DE8F1
:1001C000030001F019FA00F01FFE040000200021D6
:1001D00006F060FDE06000F017FF1FBD10B500F0F5
:1001E0007CFF10BD00F0E4FF1146FFF7E7FF01F0D0
:1001F000D9FF01F0D3F903B4FFF7F0FF03BC01F01E
:100200006DFB00000948804709480047FEE7FEE70C
:10021000FEE7FEE7FEE7FEE7FEE7FEE7FEE7FEE7B6
:1002200004480549054A064B704700007F3800081E
:10023000ED000008981E002098240020982000203F
:1002400098200020EFF3108072B6704780F310887A
:100250007047344A1368012B04D04FF00103136038
:10026000314A1060314A116031484FF080510160CD
:100270007047EFF3108272B62A48016891B14FF0CF
:10028000000101602848016829B1EFF3098121E9E3
:10029000F00F00680160254909680968B1E8F00FAE
:1002A00081F3098882F310884EF0040E70471F49CD
:1002B00008601D494FF0000008601A494FF0010026
:1002C00008601C481C49D0F8002041EA0201016086
:1002D00017484FF08051016018480068006880F3AB
:1002E000088861B662B6BFF34F8FBFF36F8F704758
:1002F0001EF0040F0CBFEFF30880EFF3098020E934
:10030000F00F40F804ED1EF0040F0CBF80F30888D6
:1003100080F3098800B505F0BBFB5DF804EB4EF0F7
:10032000040E704728000020200000202400002038
:1003300004ED00E020ED00E00000FFFF08ED00E02C
:100340000FB4044910B503AA029800F019FD10BCBF
:100350005DF814FB8C1D00200FB41CB5074B06AADA
:100360007B4469460090059800F0E9FC002069464E
:1003700000F0F8FC1CBC5DF814FB0000010A000052
:100380000FB41CB50C0007AA009001D02044401EF9
:10039000074B7B4469460190069800F0D0FC002C86
:1003A00003D06946002000F0DDFC1CBC5DF814FBA6
:1003B000D909000070B5044685690068C10601D5F9
:1003C000302600E02026C00707D070BDD4E9012107
:1003D00030469047206A401C20626D1EF6D570BDE5
:1003E00070B5044685690078C00707D170BDD4E9AF
:1003F000012120209047206A401C20626D1EF6D506
:1004000070BD00002DE9F0410646002410687529F2
:10041000314616A510D0AFF30080002802DA404222
:1004200013A507E031688A0701D512A502E0490744
:1004300004D511A5012401E0AFF3008000210A22B8
:1004400006F1240709E0B0FBF2FCB0FBF2F302FB7B
:100450001C00303078541846491C0028F3D123463C
:100460002A463046BDE8F04100F0FBB9000000002C
:100470002D0000002B0000002000000070B5044695
:100480000D4621461068AFF300802188090502D58A
:100490000F4A7A4402E00E4A7A440E32002104F1F7
:1004A000240305E000F00F060009965D5E54491C28
:1004B0000028F7D120780023000704D5702D02D042
:1004C00009B1022311322046BDE8704000F0C9B9DD
:1004D000726A00002DE9F05F894604464FF0000A79
:1004E000DFF874B1FB44C0F820A02046E1688847DB
:1004F000002874D0252806D0D4E901219047206A2D
:10050000401C2062F1E700265F462046E1688847EC
:100510002028054607DB312D05D2781910F8200C6C
:1005200008B10643F1E7B00701D526F00406C4F888
:100530001CA00027C4F818A02A2D09D0284603F0D3
:1005400082FB38B304EB8708303DC8F8185019E037
:1005500059F8041B204604EB87029161E168884743
:10056000012F054618D1E069002820DA26F0200680
:100570001DE0D8F8180000EB800005EB4000303893
:10058000C8F818002046E1688847054603F05BFB81
:100590000028EED1012F0AD02E2D08D12046E16887
:1005A00088477F1C0546022F46F02006C4DBA06961
:1005B000002803DA404246F00106A061F00701D0AE
:1005C00026F010066C2D0BD0682D09D04C2D39D09B
:1005D0006A2D35D0742D35D07A2D33D016E038E021
:1005E000E1682F4620468847B842054609D16C2F5E
:1005F00026D04FF48060E1680643204688470546D0
:1006000004E06C2F1AD04FF4807006430DB3A5F1AF
:100610004100192802D8203546F400664A4629468A
:10062000204626604E46FFF7BBFD80B101280BD067
:10063000F61D26F0070000F1080956E74020E4E720
:100640008020D8E70020D6E706F104094DE72846C8
:1006500052E7206ABDE8F09F486A000030B50546C1
:100660000B462A4613F8014B12F8010B08B1A042C1
:10067000F8D01CB1002802D06D1CF1E7284630BD2F
:1006800010B5431C02E010F8011B71B18107FAD1CB
:100690004FF0013202C88C1A8C4314EAC211F9D00F
:1006A000C01A0A0603D0C01E10BDC01A10BD0A042D
:1006B00001D0801E10BD0902FCD0401E10BD032ACF
:1006C00040F2308010F0030C00F0158011F8013B6F
:1006D000BCF1020F624498BF11F801CB00F8013B56
:1006E00038BF11F8013BA2F1040298BF00F801CB1A
:1006F00038BF00F8013B11F0030300F05383083AC0
:10070000C0F0088051F8043B083A51F804CBA0E847
:100710000810F5E7121D5CBF51F8043B40F8043B9C
:10072000AFF30080D20724BF11F8013B11F801CBD1
:1007300048BF11F8012B24BF00F8013B00F801CBA2
:1007400048BF00F8012B70474FF000020429C0F0A9
:10075000128010F0030C00F01B80CCF1040CBCF1F3
:10076000020F18BF00F8012BA8BF20F8022BA1EB45
:100770000C0100F00DB85FEAC17C24BF00F8012B2A
:1007800000F8012B48BF00F8012B70474FF0000222
:1007900000B5134694469646203922BFA0E80C5077
:1007A000A0E80C50B1F12001BFF4F7AF090728BF52
:1007B000A0E80C5048BF0CC05DF804EB890028BFCE
:1007C00040F8042B08BF704748BF20F8022B11F0F7
:1007D000804F18BF00F8012B704700004FF0013C1C
:1007E00050F8042B51F8043B9A4221D1A2EB0C03A0
:1007F000934313EACC1317D150F8042B51F8043B60
:100800009A4215D1A2EB0C03934313EACC130BD1FC
:1008100050F8042B51F8043B9A4209D1A2EB0C0387
:10082000934313EACC13DBD04FF00000704700BFB6
:10083000D01A01BAB1FA81F101F0180122FA01F0DF
:10084000CB40C1F12001DBB2C0B2C01A2CFA01F3D7
:10085000D11A914311EAC311E6D17047704770472E
:1008600070472DE9F0470D4699469246044600F13F
:1008700024080168880604D5E06921F01001216090
:1008800000E00120A84201DD471B00E00027A1692C
:100890007A1902EB0900081AA0612078C00602D478
:1008A0002046FFF787FD002608E0D4E901211AF869
:1008B00006009047206A401C761C20624E45F4DBFF
:1008C0002078C0060AD52046FFF774FD06E0D4E97B
:1008D000012130209047206A401C2062381EA7F179
:1008E0000107F4DC07E0D4E9012118F8050090477E
:1008F000206A401C2062281EA5F10105F3DC204679
:10090000FFF76EFD2078000602D50220BDE8F087D3
:100910000120FBE770472DE9FF4F0C461E464FF0C4
:10092000FF378BB0D2E90001DDF860800A908A467B
:10093000C1F30A5505B93D46002108464FF00000B5
:10094000BAF1000F00F4400005DA00EB80004FF42C
:10095000400101EA50004FEA9059B9F1010F00DD62
:10096000B9460A9850EA4A000ED044F61050A5F253
:10097000FF3545432F14B8F1000F1ED07542291ED4
:100980001EDDC9F100021CE0B8F1010F4FF00000BC
:1009900001D0302103E0F24305E02154401CB04275
:1009A000FBDB30460022002121540B99C1F808805E
:1009B000C1E900200FB0BDE8F08FBD1B6D1CDEE764
:1009C0004A4600DA694206A800F0A8FA06AB93E8A6
:1009D000070003AB83E8070050460A9901F01AF8B4
:1009E0008DE80700A0F500501F3800900398002DF7
:1009F0000ADD42F21F014A460844002303A903907E
:100A0000684601F083FA09E0A0F500504A461F3815
:100A1000002303A90390684601F08DFA8DE80700D2
:100A20000004000C03D04FF0FF30410800E01046F6
:100A3000B8F1000F03D00022009215461EE0751E8B
:100A400005D400F0E5F9303262556D1EF9D5B34694
:100A50000122084302D000227F1C04E020783028C5
:100A600001D100227F1E002A099784D01DE0112D9C
:100A700007DA00F0CDF9303262556D1C50EA010200
:100A8000F5D1084302D00098C8B10EE00021681EDD
:100A900005E0235C625C63542254401E491C814281
:100AA000F7DBAB46A81B401E0990002004F80B00A2
:100AB0000B98099AC0F80880C0E9002B7AE7112644
:100AC0004FF0000857E72DE9F04F88460446D21D45
:100AD00022F0070191B0D1E90001CDE90A0103F04C
:100AE0001CF802460B98C00F01D02D2007E02068AB
:100AF000810701D52B2002E0202101EAC000032A52
:100B0000099001D0072A05DB03464146204600F044
:100B1000C5F90BE12078800601D5E06900E00620E8
:100B2000B8F1650F814606D0B8F1660F18D0B8F15C
:100B3000670F70D131E00020B9F1110F009001DB97
:100B4000112301E009F101030AAA01A90CA8FFF78A
:100B5000E2FEDDE90C70002609F10105834647E05D
:100B600001204B4600904FF000470AAA01A90CA8AB
:100B7000FFF7D1FEDDE90DB00C995D46002610B9F6
:100B800009F101000D18B9EB050003D4C0F1FF36DF
:100B900009F10105A5EB09002BE0B9F1010F01DA1C
:100BA0004FF001090020B9F1110F0090484601DD16
:100BB000112300E003460AAA01A90CA8FFF7ABFE27
:100BC000DDE90C704D4600268346207800070AD4E4
:100BD000AB4500DA5D4601A8012D04DD411911F88D
:100BE000011C302907D04F4502DA17F1040F04DA4F
:100BF000012082460FE06D1EEEE7002F02DCED1BA8
:100C00003E4403E0781CA84200DD7D1CB81B00F1C7
:100C1000010A4FF000472078000703D4AA4501DB02
:100C20004FF0FF3A0021B7F1004F0DF143088DF866
:100C3000431024D002202B23002F01DA7F422D23E2
:100C40000A21021EA0F1010000DC5FB197FBF1FC5C
:100C500097FBF1F201FB1C7C17460CF1300C08F8F5
:100C600001CDEEE7A8F1010003702188090501D547
:100C7000452100E06521A0F1010800F8011C099858
:100C80000FA9A1EB0807FF1D00B10120411901EBDD
:100C9000EA70A1693844081A401EA0612078C00695
:100CA00002D42046FFF786FB099828B1D4E9012138
:100CB0009047206A401C20622078C00622D520463A
:100CC000FFF778FB1EE0002E04DBB34502DD01A830
:100CD000805D00E03020D4E901219047206A401C6B
:100CE0002062761CAAF101005FEA000A0AD100F036
:100CF0008BF8C0680168405CD4E901219047206A04
:100D0000401C2062281EA5F10105DCDC07E0D4E9C7
:100D1000012118F8010B9047206A401C2062381E00
:100D2000A7F10107F3DC2046FFF75AFB032011B0BF
:100D300041E6000001694A1C02610878704700B56D
:100D40008FB0CDE901310021059105497944CDE904
:100D5000031011466846FFF7BDFB0FB000BD000051
:100D6000E5FFFFFF0A6802F8010B0A607047D1E94E
:100D700000239A4202D2531C0B601070704700008F
:100D8000074B70B50D467B44FFF7D9FF0446284654
:100D900000F036F910B14FF0FF3070BD204670BD45
:100DA0009F38000010B5203AC0F00B80B1E8185011
:100DB000203AA0E81850B1E81850A0E81850BFF445
:100DC000F5AF5FEA027C24BFB1E81850A0E81850E4
:100DD00044BF18C918C0BDE810405FEA827C24BF38
:100DE00051F8043B40F8043B08BF7047D20728BFC6
:100DF00031F8023B48BF11F8012B28BF20F8023B15
:100E000048BF00F8012B704700487047541E00206F
:100E100030B5B0F10A024FEA900E71F100034EEACC
:100E2000817EB0EB0E0061EB91014FEA101E4EEA9D
:100E3000017E10EB0E0041EB11114FEA102E4EEA2D
:100E4000016E10EB0E0041EB11214FEA104E4EEAFD
:100E5000014E10EB0E0041EB1141401841F1000131
:100E60004FEAD00040EA41704FEAD10110EB800513
:100E70004FEA810444EA907444EB01046D1944EB99
:100E80000404521BA3414FF0000348BF0A3200D5AF
:100E900030BD401C41F1000130BD00002DE9F041A2
:100EA0001F46044603260168072A01F4006004DB9C
:100EB00008B116A505E016A503E008B115A500E0E8
:100EC00015A521F010002060A069C01EA0610FB11F
:100ED000401EA0612046FFF76DFA4FB1D4E9012111
:100EE00038469047206A401C2062C01C206206E001
:100EF000206AFAE7D4E9012115F8010B9047761E24
:100F0000F8D22046FFF76CFABDE8F0814E414E0062
:100F10006E616E00494E4600696E66002DE9F0472D
:100F2000814616468AB0354878440DC88DE80D00D4
:100F300032487844801C03AC0DC884E80D0041F6AB
:100F40009B300844372190FBF1F290FBF1F5A5F1BD
:100F5000800501FB12041B3C02D56442012000E025
:100F60000020DFF898A080460027FA44AAF1BE0AC4
:100F70000EE0E0070AD03246684607EB470101233E
:100F80000AEB810100F0D7FF8DE8070064107F1C99
:100F9000002CEED1194F7F44AE3F19E0E80715D081
:100FA00007EB04100DF1180A90E80E008AE80E0015
:100FB000C068F04201D1981908903246012306A971
:100FC00003A800F0B8FF03AB83E807006D10641CB2
:100FD000002DE3D14FF0010332466946B8F1000F0E
:100FE00003A802D000F092FF01E000F0A4FFC9E9DD
:100FF0000001C9F808200AB0BDE8F087946000003D
:10100000007B00F08000704710B542485421FFF784
:10101000BDFB41485421FFF7B9FB40485421FFF77D
:10102000B5FB3F493B483C4A3F4B08603D490A609D
:101030003A491960531C0365481C10650120086576
:101040003B48344A39A1784400F00CFA20B93848BA
:1010500078440A3800F0ABFA37482F4A35A1784473
:1010600000F000FA20B9344878440A3800F09FFABA
:1010700032482A4A2FA1784400F0F4F920B92F48C9
:1010800078440A3800F093FA40232248DC0000211B
:10109000224600F0C4F920B125487844543800F0C5
:1010A00086FA1D4822464023002100F0B8F920B1FD
:1010B00021487844543800F07AFA18482246102320
:1010C000002100F0ACF9002806D01C487844BDE8A7
:1010D0001040563800F06BBA10BD104870B5006D66
:1010E00020F001040B4800F033FA0B4800F030FA0E
:1010F0000A4800F02DFA09E0206D20F00105204695
:1011000000F026FA204600F078F82C46002CF3D1A7
:1011100070BD0000381D00208C1D0020E01D002047
:10112000480100204C010020500100207200000006
:101130008E5F0000770000007A5F0000665F0000AD
:101140000EB5CDE90001FFF79BFA02906946012038
:10115000ABBE0EBD08B5694600900220ABBE08BD0F
:101160001FB58DE8070069460520ABBE04B010BD71
:101170001FB58DE80F0069460620ABBEF6E708B53F
:10118000694600900920ABBE08BD1CB5CDE9000141
:1011900069460A20ABBE1CBD704708B56946009081
:1011A0000C20ABBE08BD000000487047341E002074
:1011B0007546FFF7F9FFAE4605006946534620F035
:1011C0000700854618B020B5FFF72AF8BDE8204093
:1011D0004FF000064FF000074FF000084FF0000BF3
:1011E00021F00701AC46ACE8C009ACE8C009ACE8A6
:1011F000C009ACE8C0098D46704770B50446051FAC
:1012000000F0DEF90068002C14BF446870BD002CAB
:1012100018BFAC423CBF20466468F8D301680A1886
:10122000AA4218BF456003D12A68054611440160EF
:1012300028684119A1421CBF6C6070BD616869607B
:1012400021680844286070BD2DE9F04705460C462A
:10125000C86820F4201040F48000C860800602D5E1
:10126000084600F0FAFAE06841F282014FF0FF39D7
:101270000140022903D0204600F098FAB5E000F4BE
:101280002041B1F5004F0FD1C00306D56168E06A77
:10129000884200D80846606006E02069E06260602D
:1012A0006069FFF77AFFA061A0680022EEB2002813
:1012B0000DDAE1688B050AD4C043A06041F4903098
:1012C0002260E0606068411C61600670A5E0E06833
:1012D0009046226040F40050E060206968BB60697D
:1012E000FFF74DFF012704F12405A0B1A08910F4F8
:1012F000407F08D0E06900F0AEF9206118B1E068E5
:1013000040F4006016E0E7612561E06820F4407079
:1013100040F480600EE0E06900F09DF90028206153
:10132000F1D0E06840F4006010F4407FE06002D14A
:1013300040F48070E06020696060E06825696FF0CB
:10134000010AC1051FD56168E06A884200D80846D5
:10135000411B04D02246284600F032FAF0BBE06878
:10136000010203D5E562C4E9015854E0691CE16259
:101370006160E16940F48030491EC4E902103046E2
:101380002E70BDE8F087010202D500F480320AE039
:101390006068411C61600670E0680A2E40F480308D
:1013A000E06006D00022E16A6068814203D90B4602
:1013B00002E00122F7E70346A7895B1B7F0503D400
:1013C000E7699F4200DDE2B1814200D80146E56253
:1013D0000F1AC4E90158002B09DD00E005E02246A0
:1013E0001946284600F0ECF908B14846C9E747B16C
:1013F000A069E5626560C01BA061E06840F0100074
:10140000E060E068000208D56168A069E562491BF8
:1014100008446560A0615046B3E73046B1E770B557
:10142000C468A50713D0650211D4B2F5807F09D036
:10143000B2F5007F06D0B2F5806F08D1012300F12C
:10144000240106E05D1E6FF07F46B54201D3012006
:1014500070BD0161C361416024F470611143C160DA
:10146000002070BD2DE9F0410C4607461646104697
:1014700000F06EF82078611C61280AD0722802D032
:1014800077283CD102E00125002405E00225042450
:1014900002E0082448F2020511F8010B2B2806D0BF
:1014A000622809D011F8010C74280AD00BE045F02D
:1014B000030544F00204EFE745F0040544F001049D
:1014C000EAE744F0100438462146FFF739FE411C94
:1014D00015D00021316171604FF40071F560F16148
:1014E0007061200704D530460222002100F0E2F8A6
:1014F000306D40F0010030653046BDE8F0810020DD
:10150000FBE72DE9F0410D460646104C206DC10762
:1015100004D0410804D020F00104F7E722460EE091
:10152000542000F098F807000ED0206D47F001011C
:101530000843542120653846FFF728F93A462946E2
:101540003046BDE8F0418DE70020D6E7381D002089
:101550002DE9F04704464FF000094FF0FF37C5680A
:10156000D4E90486A80707D0204600F053F9304696
:10157000FFF7F0FD002802DA3846BDE8F0872805BD
:1015800002D54046FFF739FE4C212046FFF7FEF812
:10159000206D20F0010020654846EEE710B50446B6
:1015A000AFF300802046BDE81040FEF724BE10B522
:1015B00000F07AF9BDE8104000F070B97047000003
:1015C000004870473C1E00207047704770477047C6
:1015D00038B504460A4600206946AFF3008000286B
:1015E00008BF38BD02460099204600F084F901206A
:1015F00038BD012000F0D3B9F8B5AFF3008005463F
:1016000000200C46102000BF0646A819A0420DD9A4
:10161000324669460020AFF30080070008BF00F0A3
:10162000BEF90098A04218BF0546C419FFF7C8FFCD
:1016300005600746F01D20F007004619284600F017
:1016400053F9B44208BFF8BDA21B31463868BDE863
:10165000F84000F050B970B50646FFF7B1FF0568D5
:1016600006F10B0020F00704B4429CBF002070BDBF
:101670002B466A68BAB11068A04210D304F1080181
:1016800088423CBF5068586007D3516810194160C8
:101690001168091B016058601460101D70BD13466D
:1016A0005268002AE7D121462846FFF791FF00281B
:1016B000DED170BD2DE9F041044616460D4647695E
:1016C000007B80072ED03846FFF759FD50BB3EB354
:1016D000012E02D0022E25D104E0204600F025F98B
:1016E00005441DE03846FFF758FDE168002841F049
:1016F0001001E16005DA204600F058F80120BDE84D
:10170000F081C9030BD56268E16A914200D81146A5
:10171000A26911442269891A814200DD0846054404
:10172000002D01DA0220EAE7E16A6068E26881429E
:1017300006D29103E06203D522F4003141F0100299
:10174000A6690027AE4213DCE16A814201D90B464B
:1017500000E0034603EB060C2369ACEB030CAC453D
:1017600006DD814201D98C4600E084469C4505D1C6
:10177000A760276042F02000A5620DE0AD1BE6697E
:10178000AE1B8142A66000D90846C01A281A206004
:101790005819606022F0200003490840E0600020F2
:1017A00084F84870ABE70000BFCFD7FFC16821F4D1
:1017B000001141F08001C16000218160016070472B
:1017C0002DE9F047814614460E464FF0FF38324867
:1017D000D5685769054209D03846A169FFF7D5FC9D
:1017E000002811DB2C48C0430540E5602B463246FB
:1017F00049463846FFF7B4FCA16920F00042B21A0E
:1018000011440028A16103D02046FFF7CFFF4046D6
:10181000BDE8F08770B504460569C06A6168884212
:1018200000D80846E16821F42011E160C90312D50F
:10183000A84208D02246411B2846FFF7C1FF10B13D
:101840004FF0FF3070BD0020E562C4E90150E06850
:1018500020F48030E060002070BD10B50446C06800
:1018600020F02000E060A16AA06988420DD02046E7
:10187000FFF7D0FFE06820F4405040F01000E06037
:10188000A06AA0612069E062606044F24001E06803
:101890008843E06010BD000010000200002801D065
:1018A00000F01CB87047000010B5014602A000F01F
:1018B0005DF8012010BD0000534947525452454481
:1018C0003A2052656469726563743A2063616E27D9
:1018D00074206F70656E3A200000000001491820E6
:1018E000ABBEFEE72600020000210160C0E9011046
:1018F000704710207047034640688C46002818BF88
:1019000088423CBF03464068F8D3186818448842B0
:1019100007D00CF1030020F00700001D411A521AF5
:101920000146081D0A60FFF768BC10B50146C26891
:10193000900703D0900607D5886A0AE000F03EF8C9
:1019400001210160881E10BD8B69486818440B692D
:10195000C01A91F848301BB191F84910401A10BDD7
:101960001103FCD50028FADD401E10BD70B50546F8
:101970000C460A2000E06D1C00F018F835B12878FC
:101980000028F8D102E0641C00F010F814B12078AF
:101990000028F8D1BDE870400A2000F007B810B563
:1019A00000F010F8BDE81040FFF778BF08B56946B1
:1019B0008DF800000320ABBE08BD00000048704752
:1019C000341E002010B5012805D0002103A0FFF728
:1019D000CDFF012010BD09A1F8E70000534947528F
:1019E000544D454D3A204F7574206F6620686561EF
:1019F00070206D656D6F7279000000003A204865B7
:101A00006170206D656D6F727920636F7272757091
:101A1000746564005FEA400C08BF91F0000F4FEA64
:101A20008C234FEAC12243EA51514FEA1C5018BFA0
:101A300000F5F0404FEA300018BF41F000415FEA86
:101A40006C5C00F02980BCF1FF3F08BF40F0804093
:101A50007047130C06BF12044FF0100C4FF0000C2F
:101A6000130E04BF12020CF1080C130F04BF120175
:101A70000CF1040C930F04BF92000CF1020CD30F75
:101A800004BF52000CF1010C11464FF00002A0F10E
:101A90001F00A0EB0C00704711F0004F08BF70470B
:101AA00031F000413FF4D5AF0B0C06BF09044FF0F5
:101AB000100C4FF0000C0B0E04BF09020CF1080CC7
:101AC0000B0F04BF09010CF1040C8B0F04BF89003C
:101AD0000CF1020CCB0F04BF49000CF1010CCCF14E
:101AE0002003A0EB0C0022FA03F302FA0CF241EA05
:101AF000030100F10100704720F07F4C80EA0300F1
:101B000023F07F47ACEB070303F57C5300F0004064
:101B100003F1FF032DE980494FEA154B09B44FEA61
:101B2000144325EA0B4E24EA03480FF2042606EB81
:101B3000132749083E785FEA320203FB0667C7F5C0
:101B4000000707FB06F64FEA54374FEAD64606F180
:101B5000020607FB066CCCF1005C4FEA1C472CEA3E
:101B6000074C07FB06F40CFB06F504EB15464FEAA1
:101B7000961634BF00204FF000404FEAD13706FBE5
:101B800007FC4FEA1C4C0CFB0BF7D21B03FB0CF7BA
:101B900061EB07010CFB0EF7B0EB074072EB17424D
:101BA0000CFB08F734BFA2EB0742B2EB074261EB34
:101BB00017414FEA0C444FEA910706FB07FC4FEA36
:101BC0001C4C0CFB0BF7B0EBC74072EB573203FB1E
:101BD0000CF734BFA2EBC742B2EBC74261EB5731FF
:101BE0000CFB0EF7B0EBC70072EB57720CFB08F75B
:101BF00034BFA2EBC702B2EBC70261EB5771039F80
:101C00004FEA816141EA921104EBCC044FEAD137EB
:101C10004FEA826206FB07FC42EA90124FEA8060BC
:101C20004FEA1C4C0CFB0BF7D21B03FB0CF761EBD0
:101C300007010CFB0EF7B0EB074072EB17420CFBF1
:101C400008F734BFA2EB0742B2EB074261EB174142
:101C50004FEA8C554FEA910704EB9C2406FB07FCE6
:101C60004FEA1C4C0CFB0BF7B0EBC74072EB573242
:101C700003FB0CF734BFA2EBC742B2EBC74261EBE8
:101C800057310CFB0EF7B0EBC70072EB57720CFB31
:101C900008F734BFA2EBC702B2EBC70261EB577182
:101CA00015EB4C254FEA816141EA92114FEA8262BD
:101CB0004FEAD13742EA901206FB07FC44F10004D8
:101CC0004FEA80604FEA1C4C0CFB0BF7D21B03FB66
:101CD0000CF761EB07010CFB0EF7B0EB074072EB62
:101CE00017420CFB08F734BFA2EB0742B2EB0742E6
:101CF00061EB174115EB1C154FEA813141EA924126
:101D00004FEA823242EA90424FEA80304FEA0C7644
:101D100044F1000448EA03434EEA0B484FF0000E3A
:101D2000B2EB080C71EB030724BF624639464EEB59
:101D30000E0E4FF0000B0018524149414BEB0B0BBC
:101D4000B2EB080C71EB03077BF1000B24BF62467A
:101D500039464EEB0E0E4FF0000B00185241494130
:101D60004BEB0B0BB2EB080C71EB03077BF1000B99
:101D700024BF624639464EEB0E0E51EA020718BFE9
:101D800046F0010616EB0E7655F1000254F1000103
:101D900003D5BDE88901BDE80088BDE88901BDE83B
:101DA0000048B619524141EB0101A3F1010370470C
:101DB00080807F7E7D7C7B7A797877767675747388
:101DC000727171706F6E6E6D6C6C6B6A6A69686847
:101DD000676666656464636362616160605F5F5EDD
:101DE0005E5D5D5C5C5B5B5A5A5959585857575653
:101DF00056555555545453535252525151505050B8
:101E00004F4F4F4E4E4D4D4D4C4C4C4B4B4B4A4A09
:101E10004A4949494848484747474746464645454D
:101E20004544444444434343434242424241414186
:101E3000002B9C4630D477002BD01CB54FEA3707D7
:101E400003B44FF010004FF01001BAF1000F06D0AC
:101E5000BCF1000FDCBF40F0080040F008014FF07B
:101E600000000FBCBDE810400BF1010BBBF1010FEE
:101E700008BF5FEA170722BF12F1010211F1010149
:101E80004FF0004143F1000300F0004043EA00003E
:101E90007047F9D35708D0E746EA064613F1400FDA
:101EA0004FEA16461FDD13F1200FDFBF16430A4627
:101EB000002120335B42BED0C3F1200746EA06462C
:101EC00002FA07F74FEA164646EA0706C3F120076B
:101ED00022FA03F201FA07F721FA03F14FF00003A7
:101EE00042EA0702A7E746EA020646EA06464FEA42
:101EF000164646EA0106BCBF46EA0646360C4FF0D7
:101F000000034FF000024FF0000194E72DE9804CF0
:101F10009A46934670B491E8380007C831EA400CFD
:101F200048BF34EA430C03D5FFF7E6FDFFF780FF17
:101F3000F0BCBDE8008C2DE9804C9A46934670B405
:101F400091E8380007C810F0804F08BF13F0804FA9
:101F500003D100F005F8FFF76BFFF0BCBDE8008C83
:101F600020F07F4780EA030023F07F4C07EB0C034F
:101F7000A3F57C5300F00040A3F1FE0392F0000FA4
:101F800000F0B38095F0000F00F077802DE9014953
:101F90004FEA11404FEA144621EA004800FB06FCD4
:101FA00024EA064708FB06F607FB08F800FB07F7DC
:101FB00018EB06484CEB164C4FEA124B18EB07484F
:101FC0004FEA15464CEB174022EA0B4E0BFB06FC82
:101FD00025EA06470EFB06F607FB0EFE0BFB07F78E
:101FE0001EEB064E4CEB164C4FF000061EEB074E58
:101FF0004CEB174B18EB0B0840F1000018EB0E0BE5
:1020000058EB000840F100008F1A4FF000013CBF70
:10201000C943661B14BFB5EB040C00213CBFC94388
:10202000F61B4FEA17444EEA8E0E27EA04454FEAA4
:102030001C4704FB07622CEA074C05FB07F70CFB67
:1020400005F604FB0CFC16EB074642EB174216EBB9
:102050000C4642EB1C421BEB060658EB02024141C8
:1020600046EA9E0601D5BDE80189B619524141EB09
:102070000101A3F10103BDE801894FEA14454FEACC
:10208000114724EA054621EA074C05FB07F406FB45
:1020900007F70CFB06F105FB0CFC11EB074144EBC9
:1020A00017444FEA124711EB0C4144EB1C4422EA5F
:1020B000074C05FB07F206FB07F70CFB06F605FBD2
:1020C0000CFC16EB074642EB174216EB0C4642EBB4
:1020D0001C456A1854F1000148BF7047B6195241B7
:1020E00041EB0101A3F10103704795F0000F37D0D8
:1020F0004FEA11424FEA144721EA024624EA074C0C
:1021000002FB07F106FB07F70CFB06F402FB0CFCD5
:1021100014EB074441EB17414FEA154714EB0C440D
:1021200041EB1C4125EA074C02FB07F506FB07F7CC
:102130000CFB06F602FB0CFC16EB074645EB1745BD
:1021400016EB0C4645EB1C42121951F1000148BF39
:102150007047B619524141EB0101A3F101037047E9
:102160004FEA14454FEA114724EA054621EA074C95
:1021700005FB07F106FB07F70CFB06F24FF0000624
:1021800005FB0CFC12EB074241EB174112EB0C4232
:1021900051EB1C4148BF7047921841EB0101A3F17C
:1021A0000103704710B504F02FFD002010BDFEE7BD
:1021B000704772B6FEE710B590F821100022022990
:1021C00005D00421816380F82020012010BD016822
:1021D0000B6823F00E030B6001680B6823F001030A
:1021E0000B6090F84030C46B012101FA03F3636087
:1021F00080F8211080F82020104610BD10B590F80E
:1022000021100024022903D00421816301243DE030
:1022100001680A6822F00E020A6001680A6822F06A
:1022200001020A601A4A0168914201D1012121E0AC
:10223000174A1432914201D110211BE0144A28326E
:10224000914201D1891515E0114A3C32914201D1E8
:1022500089140FE00E4A5032914202D14FF480317E
:1022600008E00B4A6432914202D14FF4801101E040
:102270004FF08071064A083A5160012180F8211020
:10228000002180F82010416B01B18847204610BD25
:10229000080002402DE9F84FDFF8B8910024A9F1B9
:1022A000040B23460F2709F1040AABF1040EC9E021
:1022B0000125A5402A40AA427DD1674ED1F804C02D
:1022C000ACEB0608B44532D014DCBCF1030F3AD0B5
:1022D00009DCBCF1000F2AD0BCF1010F1CD0BCF10D
:1022E000020F31D11DE0BCF1110F17D0BCF1120F5C
:1022F0002AD119E0B8F5881F19D006DCB8F5803F5F
:1023000015D0B8F5801F1FD111E0B8F5001F0ED011
:10231000B8F5041F18D10AE0CB6815E0CB681B1D87
:1023200012E0CB6808330FE0CB680C330CE08B680D
:102330002BB1012B4FF0080303D0456104E00423C7
:1023400002E0056100E00023FF2A01D8064601E013
:1023500000F104064FEA840501D9A5F12005D6F85D
:10236000008007FA05FC28EA0C0803FA05F548EA9C
:102370000508C6F800804D68ED0062D5374DAE699E
:1023800046F00106AE61AD6924F0030605F00105D3
:102390000095334D06EB050CDCF80850A607360F08
:1023A00007FA06F825EA0805DFF8B880404503D1AA
:1023B0004FF0000817E044E0DFF8AC80404502D160
:1023C0004FF001080FE0DFF8A480404502D14FF044
:1023D000020808E0DFF89880404502D14FF003087A
:1023E00001E04FF0040808FA06F848EA0508CCF8BE
:1023F00008804D68D9F80060ED024D4601D51643BE
:1024000000E096432E604D68DAF80060AD02554654
:1024100001D5164300E096432E604D68DBF800605E
:10242000AD035D4601D5164300E096432E604D682E
:10243000DEF80060ED03754601D5164300E09643D3
:102440002E60641C0D682A46E5407FF431AFBDE87C
:10245000F88F000008040140000011100010024035
:102460000000014000080140000C01400010014044
:10247000001401408068084000D0012070470AB174
:10248000016170470904FBE701488068704700005C
:102490000C00002002488168027811448160704776
:1024A0000C000020074810B5016841F010010160E0
:1024B000032000F075F80F2000F006F800F024F873
:1024C000002010BD0020024070B50D4D04464FF4B1
:1024D0007A712878B1FBF0F00A490968B1FBF0F095
:1024E00000F0C3FD48B9102C07D200222146501E2F
:1024F00000F036F800206C6070BD012070BD000057
:102500000C000020180000200C4808B5816941F03B
:1025100001018161816901F001010091C16941F00E
:102520008051C161C06900F080500090044841684A
:1025300021F0E06141F00071416008BD00100240EF
:1025400000000140002809DB00F01F02012191403A
:102550004009800000F1E020C0F800117047000041
:10256000F0B40E4B1B680C46C3F30223C3F10705FE
:10257000042D00D90425191D072901D2002300E0EC
:10258000DB1E012606FA05F1491E214099409E40B6
:10259000761E16403143F0BC01F0D3BA0CED00E0DA
:1025A000064900F0070208684FF6FF03184040EAAA
:1025B0000220034A10430860704700000CED00E061
:1025C0000000FA052DE9F0470F46050061D0434EA3
:1025D000306800F00700B84209D2306820F00700E8
:1025E00038433060306800F00700B84251D12868A5
:1025F0003B4C810712D5400703D5606840F4E0608A
:1026000060602878000703D5606840F4605060601F
:102610006068A96820F0F000084360602878C0076F
:1026200028D06868012810D02168022810D08907B6
:1026300000292EDA616821F0030101436160FFF790
:1026400023FF804641F288390DE021688903EFE7D6
:102650008901EDE7FFF718FFA0EB0801494502D912
:102660000320BDE8F0876068696800F00C00B0EBFB
:10267000810FEFD1306800F00700B8420BD9306805
:1026800020F0070038433060306800F00700B8429F
:1026900001D00120E5E72878400705D56068E968A2
:1026A00020F4E060084360602878000706D5606881
:1026B000296920F4605040EAC100606000F038F8F9
:1026C0006168084AC1F30311515CC84006490860BB
:1026D00006480068FFF7F8FE0020C2E7002002402D
:1026E00000100240C46D00081800002010000020F7
:1026F0000448054900684968044AC1F30221515C55
:10270000C84070471800002000100240D46D000837
:102710000448054900684968044AC1F3C221515C74
:10272000C84070471800002000100240D46D000817
:102730000E4A51680E4801F00C03042B11D0082BEF
:102740000FD10C48C1F38343C903C05C0AD551685B
:10275000084AC1F34041921E515C054A5043B0FB08
:10276000F1F07047044948437047000000100240F0
:1027700000127A00B46D000800093D002DE9F84F01
:10278000040070D02078C04DC00749D06868C0F3FD
:102790008100012807D06868C0F38100022809D1B0
:1027A0006868C00306D52868800339D560680028AA
:1027B000E7D035E06068B0F5803F0BD010B1B0F5E0
:1027C000A02F11D0286820F480302860286820F4D9
:1027D000802002E0286840F480302860606890B172
:1027E000FFF752FE06460AE0286840F48020286081
:1027F000F0E700BFFFF748FE801B642873D8286805
:102800008003F7D50CE0FFF73FFE064605E000BF6A
:10281000FFF73AFE801B6428F0D828688003F7D4BD
:1028200020789A4E80074FF001094FF0000839D503
:10283000686810F00C0F07D06868C0F381000228A8
:1028400009D16868C00306D42868800714D52069B8
:10285000012808D110E02069B0B1C6F80090FFF758
:1028600013FE074605E00AE1FFF70EFEC01B022833
:10287000C4D828688007F7D52868616920F0F80077
:1028800040EAC10028600DE0C6F80080FFF7FCFDBB
:10289000074604E0FFF7F8FDC01B022823D828688C
:1028A0008007F7D4207800072CD57948A169D9B1E1
:1028B000C0F80090FFF7E8FD074604E0FFF7E4FDED
:1028C000C01B02280FD8686A8007F7D571484FF4FB
:1028D000FA510068B0FBF1F0009000BF0098411E73
:1028E0000091FAD20EE080E0C0F80080FFF7CCFD46
:1028F000074604E0FFF7C8FDC01B022875D8686AC8
:102900008007F7D42078400760D5E8690027C00029
:1029100008D4E86940F08050E861E869012700F0D8
:10292000805000905C480168C90513D40168834653
:1029300041F480710160FFF7A7FD824606E000BF09
:10294000FFF7A2FDA0EB0A0064284ED8DBF80000D8
:10295000C005F5D5E06801280AD008B1052813D0D4
:10296000286A20F001002862286A20F0040002E0B2
:10297000286A40F001002862E06841F2883B98B183
:10298000FFF782FD82460BE0286A40F004002862CF
:10299000EEE700BFFFF778FDA0EB0A0159455AD8D2
:1029A000286A8007F6D50CE0FFF76EFD824605E049
:1029B000FFF76AFDA0EB0A0159454CD8286A800749
:1029C000F6D41FB1E86920F08050E861E06988B36F
:1029D0006968C1F38101022944D00228C6F86080E9
:1029E00004D0FFF751FD044638E034E0FFF74CFD1A
:1029F000074604E0FFF748FDC01B02282BD82868D3
:102A00008001F7D4206AB0F5803F05D16868A168DD
:102A100020F4003008436860D4E90801084369687D
:102A200021F4741108436860C6F86090FFF72CFD2C
:102A3000044606E025E000BFFFF726FD001B022844
:102A400009D828688001F7D51BE000BFFFF71CFDFF
:102A5000001B022802D90320BDE8F88F28688001F6
:102A6000F4D40EE00128F7D06868226A00F48031BF
:102A7000914204D1616A00F47010884201D00120B3
:102A8000EAE70020E8E700000010024000004242B0
:102A900080044242180000200070004070B504001D
:102AA00009D0606A002540B125616561A56294F88E
:102AB000510040B10CE0012070BD6068B0F5827F2C
:102AC000F4D0E561F2E784F85050204600F040F879
:102AD000022084F851002068016821F04001016063
:102AE000A088218900F4827001F404410843A1897F
:102AF00001F400610843217C01F002010843217DBB
:102B000001F001010843218B01F400710843217F8A
:102B100001F03801084394F8201001F080010843C7
:102B2000218D01F40051084321680860A069042147
:102B300001EA1040216848602068C16921F4006101
:102B4000C1616565012084F85100002070BD00005E
:102B500030B585B000240094019402940394006879
:102B60001449884223D11448816941F4805181611C
:102B7000816901F480510491816941F0040181610E
:102B800080690E4D00F004000490A0200090022007
:102B900001900320039069462846FFF77BFB402005
:102BA000CDE90004694628460294FFF773FB05B09F
:102BB00030BD00000030014000100240000801401C
:102BC0002DE9F84F044690F851001D4616460F4671
:102BD000012838D160684FF00408B0F5827F01D138
:102BE000A06830B3FFF750FC8246002F75D0002E4E
:102BF00073D094F85000012825D04FF0010984F8D3
:102C0000509084F851804FF00008C4F85480A763B6
:102C1000A687E687C4F83080A4F83480A4F836800C
:102C2000C4F84080C4F84480A068B0F5004F0CD0D0
:102C300015E084F85180009313460A46204600F0C0
:102C40001CF9BDE8F88F0220FBE72068016821F03D
:102C5000400101602068016821F480410160206822
:102C60000168490603D4016841F040010160E06851
:102C7000C0B134E020688168C90709D0007BA16B2E
:102C80000870A06B401CA063E08F401EE08709E045
:102C9000FFF7FAFBA0EB0A00A84202D3681C01D0A0
:102CA00032E085B3E08F0028E4D11BE02068816822
:102CB000C90709D0C068A16B0880A06B801CA06305
:102CC000E08F401EE0870AE0FFF7DEFBA0EB0A0082
:102CD000A84203D3681C02D016E012E09DB1E08F39
:102CE0000028E3D152462946204600F0EDFC08B109
:102CF0002020606584F8519084F85080606D002831
:102D00009FD001209DE7FFE784F8519084F8508020
:102D1000032096E72DE9F84F984616468A46044662
:102D2000FFF7B2FB814694F8510001281ED1BAF199
:102D3000000F73D0002E71D094F85000012815D0E8
:102D4000012784F85070032084F851000025656540
:102D5000C4F830A0A686E686A563A587E5876564E6
:102D60002564A068B0F5004F03D00CE00220BDE858
:102D7000F88F2068016821F0400101602068016837
:102D800041F48041016020680168490603D401686C
:102D900041F040010160E068B0F5006F606803D069
:102DA00048B3012E27D047E008B1012E1FD1206B78
:102DB00021680088C86006E020688168890709D515
:102DC000216B0988C160206B801C2063E08E401E4F
:102DD000E0860CE0FFF758FBA0EB0901414503D367
:102DE000B8F1FF3F03D035E0B8F1000F32D0E08EEC
:102DF0000028E1D123E0206B21680078087306E009
:102E00002068816889070AD5216B09780173206BD6
:102E1000401C2063E08E401EE0860DE02BE0FFF7B3
:102E200033FBA0EB0901414503D3B8F1FF3F03D0C9
:102E300010E0B8F1000F0DD0E08E0028E0D14A4636
:102E40004146204600F06EFC08B120206065A06875
:102E500030B109E084F8517084F85050032086E7BF
:102E60002068C1688068009084F8517004F8505F51
:102E700060680028F3D0012079E72DE9FF4F81B089
:102E80001D46934604464FF001090E9EFFF7FCFADB
:102E9000074694F851006168012806D0B1F5827F99
:102EA0003CD1A168C9BB042838D10298002871D050
:102EB000BBF1000FFBD0002DF9D094F85000012891
:102EC0002CD04FF0010A84F850A094F85100042847
:102ED00002D0052084F851004FF00008C4F8548057
:102EE000C4F838B0E587A58702992163E586A586F1
:102EF000C4F84080C4F8448020680168490603D4BF
:102F0000016841F040010160E068B0F5006F606861
:102F100008D0F0B3012D49D081E0FFE7022005B0D1
:102F2000BDE8F08F08B1012D39D1206B21680088F0
:102F3000C860206B801C2063E08E401EE0862EE07F
:102F40002068816889070FD5E18E69B1B9F1010F59
:102F50000AD1216B0988C160206B801C2063E08E40
:102F6000401EE0864FF0000920688168C9070CD038
:102F7000E18F51B1C068A16B0880A06B801CA06379
:102F8000E08F401EE0874FF00109FFF77DFAC01B7C
:102F900001E00BE067E0B04201D3701C50D1E08E3D
:102FA0000028CDD1E08F0028CAD13EE0206B2168F7
:102FB00000780873206B401C2063E08E401EE08682
:102FC0002DE02068816889070FD5E18E69B1B9F1DC
:102FD000010F0AD1216B09780173206B401C20631B
:102FE000E08E401EE0864FF0000920688168C90726
:102FF0000CD0E18F51B1C068A16B0870A06B401C70
:10300000A063E08F401EE0874FF00109FFF73CFA14
:10301000C01BB04202D3701C01D011E086B1E08E1B
:103020000028CED1E08F0028CBD13A463146204649
:1030300000F078FB50B12020606584F8508012E0E9
:1030400084F851A084F85080032068E7A06818B97C
:103050002068C1688068009084F851A084F850808E
:10306000606D0028F1D0012059E710B5401EB0F185
:10307000807F01D3012010BD4FF0E02460610F215B
:10308000601700F05EFD0020A06107202061002095
:1030900010BD704770470000F8B501680446086825
:1030A000CA684B6910F00F0F4FF0000559D003F0BC
:1030B000010602F49077374365D0C10705D0D105EA
:1030C00003D5616C41F001016164410705D5D90761
:1030D00003D0616C41F002016164810705D5D90715
:1030E00003D0616C41F004016164010707D502F06F
:1030F0002001314303D0616C41F008016164616CCF
:1031000000293AD0800604D5900602D5204600F06A
:10311000E6FB20684069616CC0F38010090700D4A9
:1031200060B3204600F0B4FB20684069400621D51A
:103130002068143050E8001F21F0400140E80012E0
:10314000002AF5D1E06BA8B16D494163E06BFFF750
:1031500055F8002811D0E06B416B01B0BDE8F0409C
:10316000084783060FD593060DD52046BDE8F840E5
:1031700000F0B5BB2046FFF78DFFF8BD2046FFF7F6
:1031800089FF6564F8BD266B2023012E7CD1C6061D
:103190007AD5D60678D508684868009048694FF017
:1031A0000206400640D5E16B086840680004000C48
:1031B000E8D0A28D8242E5D9E085886920282DD00B
:1031C00020680C3050E8001F21F4807140E80012A4
:1031D000002AF5D12068143050E8001F21F00101C9
:1031E00040E80012002AF5D12068143050E8001F92
:1031F00021F0400140E80012002AF5D184F8423065
:10320000256320680C3050E8001F21F0100140E8D1
:103210000012002AF5D1E06BFEF7CDFF6663A08DAA
:10322000E18D401A81B22AE0A08DE18D401A81B271
:10323000E08D0028A6D00029A4D022680C3252E8E4
:10324000000F20F4907042E80007002FF5D12068AD
:10325000143050E8002F22F0010240E80027002F30
:10326000F5D184F84230256320680C3050E8002FF7
:1032700022F0100240E80023002BF5D166632046BF
:10328000FFF707FFF8BDFFE705062BD5150629D583
:1032900094F841002128F5D1A068B0F5805F01D1F4
:1032A0002069B0B1206A411C216221680078486021
:1032B000E08C401E0004000CE084E3D12068C1686B
:1032C00021F08001C1602068C16841F04001C16007
:1032D000D8E7206A0088C0F308004860206A801C94
:1032E0002062E5E74006CDD55006CBD5CA6820461A
:1032F00022F04002CA6084F8413000F013F9C1E7BF
:103300008138000870B5040004D094F8410000250D
:1033100010B106E0012070BD84F84050204600F056
:1033200023F8242084F841002068C16821F400516A
:10333000C160204600F034FB2068016921F490410F
:1033400001612068416921F02A0141612068C1685A
:1033500041F40051C1606564202084F8410084F884
:1033600042006563002070BD70B586B000240094F3
:103370000194029403942E4E03682E4902200322E6
:103380002D4DB34226D18B6943F480438B618B6909
:1033900003F4804304938B6943F004038B618969D0
:1033A000039201F0040104910102CDE90010694685
:1033B0002846FEF76FFF2815CDE900046946284628
:1033C0000294FEF767FF002211462520FFF7C8F898
:1033D000252028E0194EB34227D1CB6943F40033AE
:1033E000CB61CB6903F4003304938B6943F004038E
:1033F0008B618969039201F0040104910421CDE9F4
:10340000001069462846FEF745FF0820CDE9000474
:10341000694628460294FEF73DFF00221146262009
:10342000FFF79EF82620FFF78DF806B070BD00006C
:1034300000380140001002400008014000440040F4
:1034400090F84230202B01D00220704721B11AB1F0
:103450000023036300F000BB0120704710B5006833
:103460000649884208D10648416809B10078884772
:10347000BDE8104003F0F8BB10BD00000044004060
:10348000040000202DE9F843044690F841009846D6
:1034900016460D46202802D00220BDE8F88385B1EB
:1034A0007EB100206064212084F84100FEF7ECFF2B
:1034B000A6848146E684A0682027B0F5805F02D00C
:1034C00003E00120E9E7206910B12E4600250EE057
:1034D00000260CE08021204600F0D9FAA8B9C6B138
:1034E00016F8010B21684860E08C401EE084E08CF7
:1034F0004B464FF00002CDF800800028EAD14FF093
:103500004001204600F0C3FA40B184F84170032026
:10351000C3E735F8020BC0F30800E3E784F8417015
:103520000020BAE7704700002DE9F04385B0002481
:1035300032480094019402940394816941F020017F
:103540008161816901F020010491816941F00401E8
:103550008161816901F004010491816941F00801F0
:1035600081618069DFF8989000F0080004900122E2
:103570004FF488714846FEF782FFDFF88880012209
:1035800048F202014046FEF77AFF1020012503278A
:10359000CDE90005CDE9024769464846FEF77AFEC7
:1035A000CDE90054694640460294FEF773FE0226B8
:1035B00003970096CDE9015469464046FEF76AFE3E
:1035C000A80200901048CDE9010469464046FEF784
:1035D00061FEE803CDE90005CDE9024669464046B3
:1035E000FEF758FE2802CDE90005CDE902466946FE
:1035F0004846FEF74FFE05B0BDE8F08300100240DC
:1036000000080140000C014000001110104810B5E6
:103610000E4901604FF48271416000218160C160F8
:103620004FF400720161C0E905122022C0E90721B0
:10363000416281620A21C162FFF730FA002803D09B
:10364000BDE81040FEF7B5BD10BD000000300140E0
:10365000540100200C4810B50A4901604FF4E131D3
:103660004160002181600C22C160C0E904128161C7
:10367000C161FFF747FE002803D0BDE81040FEF708
:1036800098BD10BD00380140AC0100200C4810B5B9
:103690000A4901604FF4E1314160002181600C2250
:1036A000C160C0E904128161C161FFF72BFE0028EF
:1036B00003D0BDE81040FEF77CBD10BD00440040C3
:1036C000F4010020FEE7FEE7F8B5044640684FF439
:1036D0008273984217D1A0684FF48065B0F5004F0F
:1036E00001D0A8420FD12068066826F04006066087
:1036F0006068984207D1A068A84204D100920B46A6
:103700000022012103E000920B4600228021204686
:1037100000F022F8002804D0606D40F020006065C1
:103720000320F8BDF8B515460E460B460092044638
:103730000122022100F010F840B933460022802116
:103740002046009500F008F8002804D0606D40F095
:10375000200060650320F8BD2DE9F8431E46914620
:1037600088460446089DFEF78FFE401B351AFEF77B
:103770008BFE074625480068C0F3CB30684338E02D
:10378000701C37D0FEF780FEC01BA84203D215B1D3
:10379000009860B32CE02068416821F0E0014160AE
:1037A0006068B0F5827F0BD1A068B0F5004F02D001
:1037B000B0F5806F04D12068016821F040010160FC
:1037C000A06AB0F5005F09D12068016821F40051BA
:1037D00001602068016841F400510160012084F813
:1037E0005100002084F850000320BDE8F883002534
:1037F000401E00902068816838EA010004D0002152
:103800004945BDD10020F0E70121F9E7180000206B
:10381000704710B502F085FBBDE81040FEF73ABED8
:1038200030B58FB028216846FCF7B0FF14210AA8F4
:10383000FCF7ACFF01210804CDE90010002402943C
:1038400002250491CDE907504FF4E0100990684635
:10385000FEF794FF08B172B6FEE70F20CDE90A0526
:103860004FF48060CDE90C4002210AA80E94FEF7C7
:10387000A9FE002801D072B6FEE70FB030BD704738
:1038800010B5406A0021C185C184FFF703FC10BD5B
:1038900001680C3151E8002F22F4907241E80023B6
:1038A000002BF5D10168143151E8002F22F00102FC
:1038B00041E80023002BF5D1016B012909D10168F2
:1038C0000C3151E8002F22F0100241E80023002BB8
:1038D000F5D1202180F8421000210163704708B51E
:1038E00090F84210222901D0022008BD82684FF4CE
:1038F00080539A4201D1016921B1816A9A421BD059
:103900004AB10AE00268816A5268C2F308020A807A
:10391000816A891C08E0026972B10268526802F08B
:103920007F020A70816A491C8162C18D491E0904A7
:10393000090CC18503D01BE002685268F1E70168F9
:10394000CA6822F02002CA600168CA6822F4807244
:10395000CA6001684A6922F001024A61202180F8A8
:10396000421000214163026B012A03D0FFF776FD6C
:10397000002008BD016301680C3151E8002F22F0DE
:10398000100241E80023002BF5D101680A68D20635
:1039900002D50A6849680091818DFFF77AFBE7E755
:1039A00070B5044600680169E26821F44051114392
:1039B00001612169A0680843616908432168CA68F8
:1039C00041F20C639A430243CA6020684169A269CC
:1039D00021F44071114341611E492068884202D19F
:1039E000FEF796FE01E0FEF783FE00EBC00101EB5F
:1039F0000012606864218000B2FBF0F3B3FBF1F3C6
:103A00006FF018067343B2FBF0F5B2FBF0F605EB6E
:103A10008305322303EB0515B5FBF1F5B6FBF1F693
:103A200005F0F00505EB0615B2FBF0F6B2FBF0F081
:103A3000B0FBF1F06FF01802504306EB800003EB8F
:103A40000010B0FBF1F0216800F00F0028448860FE
:103A500070BD00000038014081628285C28500216E
:103A60004164222180F84210016921B10168CA68CD
:103A700042F48072CA6001684A6942F001024A61F8
:103A80000068C16841F02001C160002070472DE945
:103A9000F843984617460D460446089E24E0701CDD
:103AA00022D0FEF7F1FCA0EB0800B0421AD8CEB14C
:103AB0002068C168490717D5802D15D0402D13D037
:103AC0000168C94309070FD40168002540680090C8
:103AD0002046FFF7DDFE0820606484F84050012096
:103AE000BDE8F8830320FBE72068006835EA0000A2
:103AF00004D00020B842D2D00020F1E70120F9E73D
:103B00000148FFF7C9BA0000AC0100200148FFF7E7
:103B1000C3BA0000F4010020FEE7490050EAC120CA
:103B200018BF04204A0D18BF40F0010040F2FF7298
:103B3000B2EB515F08BF40F00200012808BF05202A
:103B400070470907090E002804DB00F1E02080F827
:103B50000014704700F00F0000F1E02080F8141D01
:103B600070470000002806D00E4910F0FF0F03D068
:103B7000C0B2085C401C704710F47F4F04D0C0F303
:103B80000720085C0930704710F47F0F04D0C0F3A1
:103B90000740085C1130704701EB10600078193065
:103BA00070470000DC6D000810B502F04BFD0028E6
:103BB00006D0BDE810404FF0FF31024802F0C7B810
:103BC00010BD0000B413002010B502F03BFD00282A
:103BD00004D0BDE81040024802F067B810BD0000F4
:103BE000B413002010B50068143802F00CFD00205A
:103BF00010BD00002DE9F041064614460D4608466A
:103C000002F05CFD05F11407B4B1012C18D1346841
:103C10000EE000BF95F8351094F82120A4F11400AF
:103C2000914204D23946143001F084FF02E0246846
:103C3000B442EFD1B44203D13946304601F07AFFA5
:103C40000020BDE8F08130380A2801D201207047F9
:103C50000020704710B5044605488068FFF782FFD2
:103C60000449401E51F830102060A1F1140010BD2D
:103C7000E4000020D813002070B50C480468FCF75D
:103C8000E1FA0546204602F0EBF904F1440002F0A7
:103C9000E7FD042084F83400204602F00FFC28469B
:103CA000FCF7D4FABDE8704002F044B9E800002007
:103CB0002DE9FC411F460446DDE90831DDE90A65CE
:103CC000143040600060C4E90827C4E90A310A469C
:103CD0002321184601F062FFD4E90A014218D4E911
:103CE00008010E4B121F01F0DFFEE06184F8356021
:103CF0000020C4E90E052564206384F834002067A1
:103D00006067009023460190054A194604F144007B
:103D100002F0BAFD0020BDE8FC810000793C0008FB
:103D2000253D000870B50446FCF78CFA05466FF097
:103D30000100206304F1140001F00CFF204602F0A2
:103D400055F92846FCF782FABDE8704002F0F2B857
:103D500010B5029C24F001044472C0E9071200214E
:103D6000C0E9093114304060006010BD143001F02A
:103D7000FABE00007CB5184800F038FD4FF48065AD
:103D80001649284600F05EFC0122002114A002F032
:103D90008BF9154C00221146206014A002F084F922
:103DA000A060012114A001F058FFE060142103205D
:103DB000CDE900012B460022134914A002F042FB7A
:103DC000606018B1BDE87C4002F064BCBDE87C4096
:103DD00010A0FCF7B5BA0000E54F0008356C0008EC
:103DE00064696F3100000000300100206D7174744F
:103DF0005F73656D0000000073656E736F725F6DB9
:103E00007574657800000000814F00086C6F726166
:103E100000000000746872656164206372656174FB
:103E200065206661696C0D0A000000001CB5002366
:103E300008220C210BA001F0D4FE0E4C14214FF4EB
:103E4000806320600320CDE9000100220A490BA015
:103E500002F0F8FA6060002803D0BDE81C4002F0D0
:103E600019BC1CBD6374726C5F6465766963655FC1
:103E70006D71000040010020F15600086D717474EE
:103E80005F6374726C00000070B505460C461BA0A1
:103E900000F0A4FB4FF47A711DA000F001F910B1FD
:103EA0004FF0FF3070BD1BA000F098FB1DA000F08C
:103EB00095FB284600F092FB1AA000F08FFB1AA099
:103EC00000F08CFB17A000F089FB204600F086FB79
:103ED00014A000F083FB15A000F080FB41F28834B1
:103EE00021460BA000F0DCF828B9214610A000F014
:103EF000D7F80028D6D06FF0010070BD41542B4395
:103F0000574D4F44455F4355523D310D0A00000067
:103F10004F4B000041542B43574A41505F43555289
:103F20003D000000220000002C0000000D0A0000EF
:103F3000434F4E4E454354007FB505460020009048
:103F400001900290039014460E461BA000F046FB21
:103F50001DA000F043FB284600F040FB1AA000F033
:103F60003DFB1AA000F03AFB17A000F037FB3046EB
:103F700000F034FB14A000F031FB14A000F02EFB85
:103F8000224613A16846FCF7E7F9684600F026FBD5
:103F900010A000F023FB41F2883421460EA000F06F
:103FA0007FF828B921460EA000F07AF8002801D049
:103FB0004FF0FF3004B070BD41542B43495053546F
:103FC0004152543D00000000220000002C0000007F
:103FD000256400000D0A0000434F4E4E4543540037
:103FE0004F4B000010B508B107A000E008A000F09A
:103FF000F5FA41F2883108A000F052F8002801D00B
:104000004FF0FF3010BD0000415445310D0A000053
:10401000415445300D0A00004F4B000010B50EA072
:1040200000F0DCFA41F2883421460FA000F038F8A5
:1040300010B14FF0FF3010BD0CA000F0CFFA2146B8
:1040400009A000F02DF810B16FF0010010BD0B4970
:1040500001204861002010BD41542B4349504D4F71
:1040600044453D310D0A00004F4B000041542B43A5
:10407000495053454E440D0A000000000C01002039
:1040800010B505A000F0AAFA4FF47A7002F0B4FA65
:1040900002490020486110BD2B2B2B000C01002091
:1040A00070B50C460546094E03E0012002F0A4FA63
:1040B000641E29463046FCF7D1FA10B11CB100202D
:1040C00070BD002CF1D14FF0FF3070BDD81600202C
:1040D00010B54FF400710848FCF736FB0748002183
:1040E0008160C16000F072FA0549064802F0C6FD21
:1040F000BDE8104002F0B8BDD81600200C01002029
:1041000039450008F401002070B5FFF7E1FFFFF723
:10411000B7FF28B155A0FCF713F94FF0FF3070BD81
:104120005EA0FCF70DF94FF4FA64204602F064FA41
:1041300000F0ECF928B165A0FCF702F96FF001007E
:1041400070BD68A0FCF7FCF8204602F055FA00208C
:10415000FFF748FF28B169A0FCF7F2F86FF0020002
:1041600070BD6EA0FCF7ECF8204602F045FA73A192
:1041700075A0FFF789FE28B175A0FCF7E1F86FF094
:10418000030070BD79A0FCF7DBF8204602F034FA9A
:1041900042F21D527DA181A0FFF7CEFE28B180A082
:1041A000FCF7CEF86FF0040070BD85A0FCF7C8F8EE
:1041B000204602F021FAFFF731FF28B189A0FCF771
:1041C000BFF86FF0050070BD92A0FCF7B9F820466B
:1041D00002F012FA00F0FAF99B49002040A2886030
:1041E0003FA19AA000F032FF28B1A1A0FCF7A8F8E7
:1041F0006FF0060070BDA4A0FCF7A2F8204602F004
:10420000FBF901220021A6A001F09AF96FF0070541
:1042100038BBA5A0FCF794F8204602F0EDF9012286
:104220000021A9A001F08CF9D8B9204602F0E4F9E8
:1042300001220021A6A001F083F990B9204602F0E6
:10424000DBF901220021A5A001F07AF948B9204646
:1042500002F0D2F901220021A2A001F071F9002898
:10426000C8D0A3A0FCF76CF8284670BD6573703801
:104270003236365F657869745F7472616E7370612F
:1042800072656E745F7472616E736D697373696F5A
:104290006E206661696C65640D0A00006573703894
:1042A0003236365F657869745F7472616E737061FF
:1042B00072656E745F7472616E736D697373696F2A
:1042C0006E20737563636573730D0A0065737038D0
:1042D0003236365F7265736574206661696C0D0AEB
:1042E00000000000657370383236365F72657365A2
:1042F0007420737563636573730D0A00657370389A
:104300003236365F656E61626C655F6563686F2823
:104310003029206661696C0D0A00000065737038F1
:104320003236365F656E61626C655F6563686F2803
:104330003029737563636573730D0A003838383834
:1043400038383838000000006D756B6900000000D7
:10435000657370383236365F636F6E6E6563745F97
:104360006170206661696C65640D0A006573703860
:104370003236365F636F6E6E6563745F6170207393
:104380007563636573730D0A000000006D717474CA
:104390002E62656D66612E636F6D000054435000A0
:1043A000657370383236365F636F6E6E6563745F47
:1043B000736572766572206661696C0D0A00000093
:1043C000657370383236365F636F6E6E6563745F27
:1043D00073657276657220737563636573730D0A16
:1043E00000000000657370383236365F656E747297
:1043F000795F7472616E73706172656E745F7472EE
:10440000616E736D697373696F6E206661696C6547
:10441000640D0A00657370383236365F656E7472EB
:10442000795F7472616E73706172656E745F7472BD
:10443000616E736D697373696F6E20737563636505
:1044400073730D0A000000002401002062316266CF
:1044500062346431626363353439623839363562C7
:10446000653233383933643263313334000000004D
:104470006D7174745F636F6E6E65637420666169DD
:104480006C65640D0A0000006D7174745F636F6E7B
:104490006E65637420737563636573730D0A000042
:1044A0006C656430303100006D7174745F737562D7
:1044B0007363726962655F746F706963207375639B
:1044C000636573730D0A0000636F32303031000092
:1044D00068756D697475726530303100736F696C21
:1044E000303031006C696768743030310000000092
:1044F0006D7174745F7375627363726962655F7402
:104500006F706963206661696C0D0A0010B506A0C2
:1045100000F064F842F2107106A0FFF7C1FD002818
:1045200001D04FF0FF3010BD41542B5253540D0AAF
:10453000000000004F4B000030B5134908708A6836
:104540000123B2F5FF7F0AD88A68104CA518521CC7
:104550008A6028708D68002262550A2800D1CB60DD
:104560004A88521C92B2B2F5007F00D300228B8899
:104570009A4204D0064B4C8818554A8030BD0869D1
:10458000401C086130BD00000C010020D81600203E
:10459000D818002010B54FF0FF3320B1094A918898
:1045A0005488A14201D1184610BD074B5B5C0370D3
:1045B000491C88B2B0F5007F00D300209080002015
:1045C00010BD00000C010020D818002002484188CE
:1045D00081800021016170470C01002010B5044664
:1045E0004FF400710848FCF7AFF8084900208860D4
:1045F0002046FCF745F8214682B2BDE810404FF056
:10460000FF330348FEF73EBFD81600200C01002000
:10461000F40100208AB201464FF0FF330148FEF753
:1046200031BF0000F40100208A68002A01DCFCF799
:104630000BBE521E8A604A68C0B2531C4B60107099
:1046400070470000B0F5806F01D1014801607047EC
:10465000000000200EB52B480168019140680290CF
:10466000002000F09BFA10B127A0FBF769FE0021A3
:10467000084600F011FC0121002000F0A3FA0021FF
:10468000084600F0B9FB7F21002000F029F902A9BB
:10469000002000F083FB002000F04BF901210020F6
:1046A00000F09AFB4FF4F5724FF4EB71002000F02C
:1046B00039F91B49002000F0AFFB01A9002000F0F0
:1046C000BFFA1849002000F0F7FA1221002000F08C
:1046D0003FFB00221146104600F062FA04220E2130
:1046E000002000F0E9FB002040F2432103460A4687
:1046F000009000F077FA40F2FF31002000F036F928
:104700000EBD0000006F00084C4C43433638207249
:1047100065736574206661696C65640D0A0000004C
:1047200080A1031C0401002000B5C3B00020ADF837
:10473000000140A900F03EF9002836D1BDF8001173
:10474000002932D000F012F9BDF80001C00702D0F4
:1047500018A0FBF7F5FDBDF80001800502D519A0F2
:10476000FBF7EEFDBDF80001400602D519A0FBF7EE
:10477000E7FDBDF80001810719D5400617D441A90E
:10478000002000F031F99DF804319DF805116A46CA
:10479000002000F0E1F900F02FF813484268002AE9
:1047A00003D09DF804116846904743B000BD00F067
:1047B00023F8FAE74C6F526120545820646F6E65FD
:1047C0000D0A00004C6F52612074696D656F75743D
:1047D0000D0A00004C6F5261205258204352432072
:1047E0006572726F720D0A00FC000020014948607A
:1047F00070470000FC00002008B51849FF20C87071
:10480000002000F059FA40F2FF31002000F0AEF82D
:104810006FF07F41002000F029FB10B110A0FBF7E2
:104820008FFD0E4808380178002916D0002101704C
:104830006946002000F0F2F808B112A00BE09DF8E4
:1048400000209DF8011016A0FBF77AFD9DF80100ED
:10485000052802D018A0FBF773FD08BD0401002055
:104860004552524F523A20536574527820636F6E0E
:1048700074696E756F7573206661696C65640D0A85
:10488000000000004C6F52612073746174757320D6
:1048900072656164206661696C65640D0A000000E0
:1048A0004C6F5261206D6F64653D25752C20636DE2
:1048B000643D25750D0A00004552524F523A207250
:1048C0006164696F20646964206E6F7420656E7422
:1048D0006572205258206D6F64650D0A000000005B
:1048E0001CB506A2126801928DF8051000210B4636
:1048F0000091022201A900F0FBF81CBD8900000014
:104900001CB507A31B6801938DF8051000218DF8D5
:1049100006200B460091032201A900F0E9F81CBD16
:1049200098000000D21CC1F38701C2F38702FFF791
:10493000E7BF38B5054600208DF8000040F6D804E2
:1049400001236A462146284600F016F900280BD1BB
:104950009DF80000012340F01E008DF800006A461B
:104960002146284600F0FAFA38BD00001CB508A21E
:10497000126801920A0A8DF805208DF806100021B0
:104980000B460091032201A900F0B2F81CBD000003
:104990000200000043F60952B0FBF2F1534201FB62
:1049A0000300531003EB8030B0FBF2F000EB8130DA
:1049B000704700003EB50C460AA101AB09680291A0
:1049C0000021019102210A46009102A900F044F859
:1049D000002806D19DF805109DF8042001EB022166
:1049E00021803EBD120000003EB50C460AA101AB7D
:1049F000096802910021019102210A46009102A951
:104A000000F02AF8002805D19DF8041021709DF8C7
:104A1000051061703EBD0000130000003EB50C465D
:104A20000CA101AB0968029100218DF8041001214D
:104A30000A46009102A900F00FF8002809D19DF85C
:104A40000410C1F3420121709DF80410C1F302115A
:104A500061703EBDC00000002DE9F0411E461746C2
:104A60008846069C00F062FA10B10320BDE8F08190
:104A7000114D002210212846FDF701FD64233A461E
:104A800041460E48FEF746F938B964B16423224620
:104A900031460A48FEF794F828B101221021284631
:104AA000FDF7EDFCE1E7012210212846FDF7E7FCC8
:104AB000BDE8F04100F03ABA00080140540100207E
:104AC00010B50A4C002202212046FDF7D8FC0A202E
:104AD00001F092FD012202212046FDF7D0FC0A20C0
:104AE00001F08AFDBDE8104000F020BA000C014042
:104AF0002DE9F0411E4617468846069C00F016FA3E
:104B000010B10320BDE8F081114D0022102128468C
:104B1000FDF7B5FC64233A4641460E48FEF7FAF825
:104B200038B964B16423224631460A48FEF7F2F8E8
:104B300028B1012210212846FDF7A1FCE1E701225E
:104B400010212846FDF79BFCBDE8F04100F0EEB9CE
:104B500000080140540100201CB506A424680194FB
:104B600000938DF805101346032201A9FFF774FF87
:104B70001CBD00001E0000001CB507A424680194A1
:104B80000C0A8DF8054000938DF806101346042298
:104B900001A9FFF761FF1CBD1D000000FFF790BFDA
:104BA0001CB507A31B6801938DF8051000218DF833
:104BB00006200B460091032201A9FFF799FF1CBDB7
:104BC0008F0000001CB506A2126801928DF8051036
:104BD00000210B460091022201A9FFF789FF1CBDAD
:104BE0009D0000002DE9FF4112A70DF10408E0CF60
:104BF0000A9C88E8E0000D0A8DF805508DF8061033
:104C0000110A8DF807108DF80820190A8DF809107F
:104C10008DF80A30210A8DF80B1000210B46009107
:104C20008DF80C40092201A9FFF762FF04B0BDE82E
:104C3000F0810000080000000000000000000000FB
:104C40003EB5054648780C46052802D0042804D015
:104C500008E020780B2828D004E020780B2824D006
:104C60000A2822D012A10522D1E90001CDE90101D3
:104C700020788DF8050060788DF80600A0788DF812
:104C80000700E07801A900F001008DF8080000207D
:104C9000034600902846FFF72BFF002804D16278D6
:104CA0000121284600F01AF93EBD01203EBD00005A
:104CB0008B00000000000000FEB50C4622A1064655
:104CC000D1E90001CDE901012088000A8DF8050035
:104CD00020788DF80600A0788DF80700E0788DF830
:104CE0000800207900B101208DF80900607900B139
:104CF000012000258DF80A002B46072201A9304625
:104D00000095FFF7F5FE00281AD18DF8005040F20B
:104D1000367501236A4629463046FFF72DFF0028E5
:104D20000ED1607901289DF800000AD040F00400FF
:104D30008DF8000001236A462946304600F00EF93E
:104D4000FEBD20F00400F3E78C000000000000002E
:104D5000F8B5064600200C464FF4E86500900223A3
:104D60006A4629463046FFF707FF002814D19DF810
:104D7000000004F0F00120F0F00008448DF800007D
:104D80009DF80100022364F307108DF801006A46C4
:104D90002946304600F0E2F8F8BD00000EB50CA33D
:104DA000D3E90023CDE901230A788DF805204A785C
:104DB0008DF806208A788DF80720C9788DF80810BC
:104DC00000210B460091052201A9FFF791FE0EBDBF
:104DD00095000000000000001CB506A212680192B8
:104DE0008DF8051000210B460091022201A9FFF762
:104DF0007FFE1CBD8A0000001CB506A2126801924D
:104E00008DF8051000210B460091022201A9FFF741
:104E10006FFE1CBD9600000010B504460846FFF763
:104E2000B9FD01462046BDE8104000F001B8000081
:104E30000EB50CA3D3E90023CDE901230A0E8DF8AA
:104E400005200A0C8DF806200A0A8DF808100021AA
:104E50008DF807200B460091052201A9FFF748FEB7
:104E60000EBD000086000000000000001CB509A275
:104E7000126801920A0C8DF805200A0A8DF80620A6
:104E80008DF8071000210B460091042201A9FFF7BD
:104E90002FFE1CBD820000001CB506A21268019204
:104EA0008DF8051000210B460091022201A9FFF7A1
:104EB0001FFE1CBD800000001CB507A31B680193EA
:104EC0008DF8051000218DF806200B460091032275
:104ED00001A9FFF70DFE1CBD8E000000F8B50746C6
:104EE000002014460D468DF8000040F68906012387
:104EF0006A4631463846FFF73FFE002814D1012D9F
:104F000001D1062C04D09DF8000040F0040003E01D
:104F10009DF8000020F004008DF8000001236A468F
:104F20003146384600F01AF8F8BD000070B501F0BF
:104F300001FC0446084D06E001F0FCFB001B642860
:104F400001D3032070BD01212846FDF793FA012803
:104F5000F2D0002070BD0000000C01401CB507A479
:104F6000246801940C0A8DF8054000938DF8061012
:104F70001346032201A9FFF7BBFD1CBD0D00000075
:104F8000FFF768FBFFF738FC002442F2107001F0D5
:104F9000B8FB094E05460A2001F0B3FB0146306814
:104FA00001F0B6F8FFF7C0FB01F0C4FB011BA942FA
:104FB000F1D30446EFE7000030010020FDF772FA5C
:104FC000FEF72EFCFEF7B0FAFEF744FBFEF75EFBA1
:104FD000FEF71CFBFEE710B500F0F2FCBDE8104048
:104FE000FFF7ECBF04292CD30278012A01D0FF2A55
:104FF00027D1C278091FC9B28A4222D18178001D07
:1050000002291ED10E2A1CD130F8021B4ABA0D49C2
:105010000A800268C37812BA22F0FF021A434A607B
:105020004268C37912BA22F0FF021A438A600289E9
:1050300052BA8A81408940BAC8810348806801F029
:1050400043B87047D81C0020300100202DE9F74FED
:1050500093460098FBF714FB04460198FBF710FBFE
:1050600007465846FBF70CFB654D4FF002094FF021
:10507000000A06464A46C5F804A007B182220EB1CE
:1050800042F0400204F10C030FB13B449B1C0EB1F3
:1050900033449B1C5B49102008700120C5F80400B4
:1050A00003F07F0CDB09002B02D000BF4CF0800C1A
:1050B00001F800C000F10100F2D101F800A000F1F8
:1050C00001004FF0040C01F800C000F101004FF0A6
:1050D0004D030B5400F101004FF051030B5400F14C
:1050E00001004FF054030B5400F1010088460B54AB
:1050F00000F1010001F800C000F101000A5400F1C4
:1051000001004FF03C0201F800A000F101000A5438
:1051100000F101004FEA14220A5400F10100224676
:105120000C5400F10100686040440099FBF7C7FA95
:105130006868204468607FB13A0A08F80020401C83
:105140003A4608F80070401C686040440199FBF73B
:10515000B6FA6868384468607EB1320A08F8002000
:10516000401C324608F80060401C686040445946C4
:10517000FBF7A5FA686830446860A9F10106DFF81A
:105180008890224CA8464FF4007B40F6B73759462A
:105190001E48FBF7D9FAC9F800A01A48D8F804103D
:1051A00000F0CCF93D46012001F026FA20782028B5
:1051B00002D16078022807D06D1EF4D2761EE6D2A6
:1051C0004FF0FF30BDE8FE8FE07838B1E078062878
:1051D00013D2DFE800F01205070C0E100CA002E05D
:1051E00019A000E024A0FBF7ABF80020EAE72FA00D
:1051F000F9E738A0F7E743A0F5E74AA0F3E7000096
:1052000024010020D814002014010020D81600200A
:10521000E8BF9EE68EA5E5B7B2E8A2ABE69C8DE5B9
:105220008AA1E599A8E7ABAFE68EA5E58F97EFBC1D
:105230008CE8BF9EE68EA5E7A1AEE8AEA4E6889016
:10524000E58A9F5C720A0000E8BF9EE68EA5E5B77E
:10525000B2E68B92E7BB9DEFBC8CE4B88DE694AFD1
:10526000E68C81E79A84E58D8FE8AEAEE78988E623
:105270009CAC0D0A00000000E8BF9EE68EA5E5B7D5
:10528000B2E68B92E7BB9DEFBC8CE4B88DE59088CD
:10529000E6A0BCE79A84E5AEA2E688B7E7ABAFE646
:1052A000A087E8AF86E7ACA60D0A0000E8BF9EE63F
:1052B0008EA5E5B7B2E68B92E7BB9DEFBC8CE69C72
:1052C0008DE58AA1E7ABAFE4B88DE58FAFE794A891
:1052D0000D0A0000E8BF9EE68EA5E5B7B2E68B9208
:1052E000E7BB9DEFBC8CE697A0E69588E79A84E73C
:1052F00094A8E688B7E68896E5AF86E7A0810D0A10
:1053000000000000E8BF9EE68EA5E5B7B2E68B92EE
:10531000E7BB9DEFBC8CE69CAAE68E88E69D835C8D
:10532000720A0000E69CAAE79FA5E5938DE5BA9472
:105330000D0A000001A1FBF751BA00006C65643052
:105340003031000070B501221346550506E0845C3B
:10535000521C240604D5DB01AB421DD88A42F6D389
:10536000931C8B4218D88318921C1B885CBA8B1A2A
:10537000A34211D3851813190278C2F34102032AFC
:105380000AD01AB19A1C8A4206D89B1CC218CB1AA2
:1053900021462846FFF7CEFF70BD00002DE9F047FB
:1053A00090468A468146FBF76BF906465046FBF766
:1053B00067F90746244C0020B8F1000F606006EB47
:1053C000070101D0091D00E0891C204D3020287004
:1053D0000120606001F07F02C909002902D000BFEE
:1053E00042F080022A5400F10100F3D14FEA162165
:1053F000295400F1010032462E5400F10100606092
:1054000028444946FBF75BF96068B8F1000F304467
:1054100060600AD00C494A782A54401C0978295403
:10542000401C60602088401C208060683A46284408
:105430005146FBF744F96068C1190448616000F007
:105440007DF86068BDE8F08724010020D8140020B2
:105450002DE9F84F2D4801682D4C4FF0000941B15E
:105460000568FFF753F829462AA0C4F80890FAF710
:1054700067FFDFF8C4A06846FFF78CF8002842D128
:10548000A068A0B3B0F5FF7F2ED800BF9DF8002024
:105490000AF80020401C01210022274F0D46134628
:1054A000A0600228E7D397F800805FEA18161BD0A7
:1054B0000F2E19D08142DED27E5C491C06F07F0C93
:1054C0000CFB05225B1C360619D4A1F2FF135B42CC
:1054D0009A4209D811448142CDD80320B0EB181F5D
:1054E00002D11548FFF72EFFC4F80890C3E7FFE785
:1054F0009DF800100909BED00F29BCD0C6E7ED0108
:10550000042BD7D3F0E7BDE8F88F00001C01002082
:10551000240100204553503832363620525820732B
:10552000747265616D206F766572666C6F773A2074
:10553000256C750D0A000000D81A0020FFF76AB824
:105540002DE9F74F17468B4602260098FBF798F88F
:10555000454C4FF00008454ADFF8149105460123F9
:10556000C4F8048027B1822010700120636004E039
:10557000A22189F800100020636041191846091D16
:1055800001F07F0CC909002902D000BF4CF0800C4B
:1055900002F800C000F10100F2D109F8008000F12A
:1055A000010092461354114600F101004FEA152202
:1055B0000A5400F101002A460D5400F10100606018
:1055C00050440099FBF77BF86068284460601FB185
:1055D0000AF800B0401C6060C246A046DFF894B0F4
:1055E00040F6B7354C46761ECBF800A04FF400715C
:1055F0001F48FBF7A9F81D48D8F80410FFF79EFFD5
:105600002F46012000F0F8FF2078902806D07F1E5A
:10561000F7D23046761EE7D2BDE8FE8F16A0FAF725
:105620008FFE607803280BD1A1781AA0FAF788FEC4
:10563000E17821A0FAF784FE217928A0FAF780FE0C
:105640006078022807D1A17812A0FAF779FEE178F4
:1056500019A0FAF775FE6078012803D1A1780DA092
:10566000FAF76EFE0020D7E724010020D8140020AE
:10567000D816002014010020E8AEA2E99885E4B80D
:10568000BBE9A298E7A1AEE8AEA4E68890E58A9FC0
:105690000D0A000053756363657373202D204D61FF
:1056A00078696D756D20516F532030206973202506
:1056B0003032580D0A000000537563636573732020
:1056C0002D204D6178696D756D20516F532032200A
:1056D000697320253032580D0A0000004661696C5C
:1056E00075726520697320253032580D0A0000005C
:1056F0002DE9FF41FEF708FD002852D1DFF8A88010
:10570000002500BF01F016F80446FFF7A1FE642152
:10571000D8F8000000F0FCFC0028F3D0601B42F237
:1057200010718842EED3214DA86801F0CFFA0646E9
:105730000F46686801F0CAFA8DE8C3001CA2202158
:105740001E48FAF71DFE00221C491DA0FFF726FE89
:105750001A482B881DA210211038FAF711FE17499C
:10576000002210391AA0FFF719FE1448AB8917A2BE
:1057700010213030FAF704FE10490022303116A013
:10578000FFF70CFE0D48EB8910A210212030FAF72C
:10579000F7FD0A490022203112A0FFF7FFFD254640
:1057A000B0E7BDE8FF81000038010020D81C0020D0
:1057B000252E32662C252E3266000000F81C0020B3
:1057C00068756D697475726530303100256400004C
:1057D000636F3230303100006C696768743030318B
:1057E00000000000736F696C3030310030B5826AA0
:1057F0004B681A440023914211D01478E4070ED16B
:10580000C46A94420BD0046B944200D101631360CC
:1058100054684C60846A52680D1B22449560826A09
:105820008C6822448A420ED01478E4070BD1046BB2
:105830008C4200D102630B604B685360806A4968F8
:10584000121A0844826030BD2DE9F04F85B09946A8
:10585000DDE90EA5109CAB46630602D5DFF814C146
:1058600003E0DFF810C1ACF1110CE30601D524F020
:105870000104E30701D0302300E020230026049335
:10588000A3070BD5002A02DA2D26524206E0630751
:1058900001D52B2602E0230700D520260023EE4663
:1058A00022B930228DF8002001230CE0B9F10A0F53
:1058B00014D002F00F0812091CF808800EF80380BB
:1058C0005B1C002AF2D1AB4200DD1D46AAEB0502AB
:1058D00014F0110F4FF0200708D015E00A27B2FB93
:1058E000F7F807FB1828B2FBF7F2E5E73EB1002A0C
:1058F00005DD521E03E0884200D20770401CB2F161
:10590000000CA2F10102F6DC26B1884200D206703A
:10591000401C521EE40605D508E0884201D2049CD2
:105920000470401C141EA2F10102F6DC30242E4645
:105930006D1E9E420ADD884200D20470401CF6E7CC
:10594000884201D2E55C0570401C00E074461D1ED3
:10595000A3F1010307DDBBF1000FF1D103E08842A1
:1059600000D20770401C131EA2F10102F7DC05B043
:10597000BDE8F08FED6E00081CB514210A20CDE9BA
:1059800000014FF480730022034904A000F05AFD87
:10599000BDE81C4000F07EBED74F00086D61696E07
:1059A0000000000070B5044C044D02E02068804700
:1059B000241DAC42FAD370BD40700008447000084A
:1059C00070B5044C044D02E020688047241DAC42B1
:1059D000FAD370BD447000085070000810B5FAF793
:1059E00031FC044A5188491C5180BDE81040FAF747
:1059F0002DBC0000E400002010B5FAF723FC0B4C8E
:105A00006188491E09B2618000290ADC0021618099
:105A1000FAF71CFC6068002807D0BDE8104000F0D1
:105A200089BABDE81040FAF711BC10BDE4000020AF
:105A300070B504000AD0FEF7B7F80546204600F01E
:105A4000FAFB2846BDE87040FEF7BEB870BD000006
:105A5000004870473C020020004870473C1200207C
:105A600010B5FCF71FFDFDF7DBFEFDF75DFDFDF753
:105A7000F1FDFDF70BFEFFF795FFFFF7EDFF044685
:105A8000FFF7E6FF2146BDE8104000F04FBC0000E4
:105A9000044910B5096811B18847002800D0FEE715
:105AA00010BD00001C00002070B50446121D22F03D
:105AB00007000022094D403840F82250521C102A9D
:105AC000FAD301620021416281624FF0807200F1DD
:105AD0003005C263C16285E81A0070BDEFBEADDE5D
